:030000000204AE49
:0100030032CA
:03000B0002018C63
:0100130032BA
:01001B0032B2
:0100230032AA
:03002B000201B11E
:10002E00C00078B10000D8FCD00022C000C0017919
:10003E002D78A6D8FED9FADAF6D001D00022D296C3
:10004E0012002EC29622A2E79286A2E69287A2E51F
:10005E009290A2E4929112004C12002EA2E392868C
:10006E00A2E29287A2E19290A2E0929112004C221B
:10007E00D2A0020054C2A0020054C296C29774339A
:10008E0012008374331200837432120083742812A8
:10009E000083740C1200837401120083C0027A0272
:1000AE00120039D00222E493600612007EA380F67D
:1000BE002244404480020083C0E0E8C4540F443020
:1000CE0012007EE8540F443012007ED0E0224358D6
:1000DE002020542048483A4D4D3A5353414D000983
:1000EE0020414C4D2048483A4D4D414D204F4E0039
:1000FE00414D00504D00414D00504D005400414CBB
:10010E0041524D200053544F50202000534554204F
:10011E004800534554204D00534554205300534539
:10012E00542041480053455420414D004F4E20006D
:10013E004F4646004F4E2F4F464600497420697376
:10014E002054696D652020202020200054494D4503
:10015E0052200053455420482000534554204D2032
:10016E000053455420532000438E04E58954F04437
:10017E0001F589758C93758A7FD2A9D28C22C28C97
:10018E00758C93758A7F32438E1075C80075CFA219
:10019E0075CE4075CBA275CA40E4F530F531D2ADBF
:1001AE00D2CA22C2CFC0E0C0D00530E53070020501
:1001BE0031E530B4F419E531B40114D200E4F53070
:1001CE00F531E5332401F533D4F533B20180030262
:1001DE0002AF20010DD202E5342401F534D4F534FA
:1001EE008003020273200A2BE53B2401F53BD4F574
:1001FE003BE53BB4601DE53C2401F53CD4F53C7574
:10020E003B008000B4600CE53D2401F53DD4F53D86
:10021E00753C00200B4DE5402499F540D4F540E5A2
:10022E0040B4001DE540B40018E53FB40013E53FAF
:10023E00B4000EE53EB40009E53EB40004D208D287
:10024E000BE540B4991DE53F2499F53FD4F53F7574
:10025E0040598000B4990CE53E2499F53ED4F53E04
:10026E00753F5980030202AFE534B46010D203E546
:10027E00352401F535D4F53575340080030202AF0F
:10028E00B46010D204E5362401F536D4F536753552
:10029E000080030202AFB41303753601B41202B22A
:1002AE000520801EC0027A32120039D00220801240
:1002BE003080FDE5372401F537D4F537B4120375D8
:1002CE00370020B215C0027A32120039D00220B2A5
:1002DE000930B2FDD209E5378003020399E537B440
:1002EE000110E535D204E5362401F536D4F5360293
:1002FE0002A4E537B40214D203E5352401F535D452
:10030E00F535B46003753500020399E537B4030380
:10031E00753400E537B40414E5382401F538D4F506
:10032E0038B41303753801B41202B206E537B405BA
:10033E000FE5392401F539D4F539B4600375390068
:10034E00E537B40602B207E537B40702B20AE5375D
:10035E00B40809E53E2401F53ED4F53EE537B4096F
:10036E000FE53F2401F53FD4F53FB4601E753F0005
:10037E00E537B4100FE5402401F540D4F540B460E4
:10038E000A754000E537B41102B20B20A239C00243
:10039E007A32120039D00220A22D30A2FDE537B4F8
:1003AE000709753D00753C00753B00E537B4080C38
:1003BE00B40909B41006B411030203D5753E0075D5
:1003CE003F00754000D20B300724E536F9E5389929
:1003DE00B4001BE535F9E53999B40012E534B400E3
:1003EE000D3006053005078003200502D2083008BF
:1003FE001620B013C0027A32120039D00220B00794
:10040E0030B0FDC208D20920A41EC0027A321200FA
:10041E0039D00220A41230A4FDE53A2401F53AD4D5
:10042E00F53AB40403753A00300806D28CB2A180B6
:10043E003EE53AB400028037E53AB40110E535B432
:10044E00000BE534B40006D28CB2A18022E53AB49A
:10045E00020BE534B40006D28CB2A18012E53AB498
:10046E000309200106D28CB2A18004B28CD2A1D095
:10047E00D0D0E0327597DE7597AD75817F75E1004E
:10048E0075E20075E34075A60275A90075A900E531
:10049E00A930E7FB120176120195120088D2AF2225
:1004AE00120482C0E07401141200C1D0E0C0E074E6
:1004BE0001141200BFD0E0D200D202D203D204D275
:1004CE0005D206D207D208B208D20AD20BB28C7568
:1004DE0032007533007534587535587536117537C9
:1004EE0000753811753959753A00753B00753C0029
:1004FE00753D00753E00753F0075400020B71DC06C
:10050E00027A32120039D00220B71130B7FDC2CABA
:10051E00E4F530F5310204AED2CA80082009052078
:10052E00000280D8C0E07407141200C1D0E0C000F1
:10053E00A8361200C6D000C0E0740A141200C1D052
:10054E00E0C000A8351200C6D000C0E0740D141231
:10055E0000C1D0E0C000A8341200C6D000C0E074C4
:10056E0007141200BFD0E0C000A8381200C6D00099
:10057E00C0E0740A141200BFD0E0C000A839120007
:10058E00C6D000C083C082C0E09000FE1200B4D07E
:10059E00E0D082D083C0E07410141200BFD0E0C04F
:1005AE0000A80A1200C6D000C0E0740C141200BFDE
:1005BE00D0E0300614C083C082C0E0900107120064
:1005CE00B4D0E0D082D0838012C083C082C0E090CD
:1005DE0001041200B4D0E0D082D083C0E0740F14B6
:1005EE001200C1D0E0300514C083C082C0E090017B
:1005FE00011200B4D0E0D082D0838012C083C082BA
:10060E00C0E09000FE1200B4D0E0D082D083C0E0F3
:10061E00740E141200BFD0E0300714C083C082C025
:10062E00E090013A1200B4D0E0D082D0838012C0A4
:10063E0083C082C0E090013E1200B4D0E0D082D0E0
:10064E0083E537B40074C0E07404141200C1D0E026
:10065E00C0E0742012007ED0E0C0E07405141200D9
:10066E00C1D0E0C083C082C0E090010A1200B4D0B5
:10067E00E0D082D083C0E07401141200BFD0E0C07D
:10068E0083C082C0E090010C1200B4D0E0D082D0C2
:10069E0083C0E07401141200C1D0E0C0E0744312B4
:1006AE00007ED0E0C0E07402141200C1D0E0C000A1
:1006BE00A83A1200C6D000020C53B4013BC0E0743D
:1006CE0001141200C1D0E0C083C082C0E090011AB4
:1006DE001200B4D0E0D082D083C0E07401141200B6
:1006EE00BFD0E0C083C082C0E090010C1200B4D035
:1006FE00E0D082D083020C53B4023BC0E0740114EC
:10070E001200C1D0E0C083C082C0E0900120120070
:10071E00B4D0E0D082D083C0E07401141200BFD0F8
:10072E00E0C083C082C0E090010C1200B4D0E0D0D3
:10073E0082D083020C53B4033BC0E0740114120048
:10074E00C1D0E0C083C082C0E09001261200B4D0B8
:10075E00E0D082D083C0E07401141200BFD0E0C09C
:10076E0083C082C0E090010C1200B4D0E0D082D0E1
:10077E0083020C53B40461C0E07405141200C1D09E
:10078E00E0C083C082C0E090010A1200B4D0E0D075
:10079E0082D083C0E07401141200BFD0E0C083C0C9
:1007AE0082C0E090012C1200B4D0E0D082D083C081
:1007BE00E07401141200C1D0E0C0E0744312007E58
:1007CE00D0E0C0E07402141200C1D0E0C000A83A1C
:1007DE001200C6D000020C53B40561C0E0740514BB
:1007EE001200C1D0E0C083C082C0E090010A1200A6
:1007FE00B4D0E0D082D083C0E07401141200BFD018
:10080E00E0C083C082C0E09001331200B4D0E0D0CB
:10081E0082D083C0E07401141200C1D0E0C0E07435
:10082E004312007ED0E0C0E07402141200C1D0E08A
:10083E00C000A83A1200C6D000020C53B40661C024
:10084E00E07405141200C1D0E0C083C082C0E090F5
:10085E00010A1200B4D0E0D082D083C0E07401143B
:10086E001200BFD0E0C083C082C0E09001421200EF
:10087E00B4D0E0D082D083C0E07401141200C1D095
:10088E00E0C0E0744312007ED0E0C0E074021412A7
:10089E0000C1D0E0C000A83A1200C6D000020C532E
:1008AE00B4070280030209B1C0E07405141200C13E
:1008BE00D0E0C0E07401141200C1D0E0C0E0744377
:1008CE0012007ED0E0C0E07402141200C1D0E0C06D
:1008DE0000A83A1200C6D000C0E07405141200C180
:1008EE00D0E0C083C082C0E090010A1200B4D0E014
:1008FE00D082D083C0E07401141200BFD0E0C08358
:10090E00C082C0E09001131200B4D0E0D082D08338
:10091E00C0E07401141200C1D0E0C0E074431200B4
:10092E007ED0E0C0E07407141200BFD0E0C000A873
:10093E003D1200C6D000C0E0740A141200BFD0E011
:10094E00C000A83C1200C6D000C0E0740C14120007
:10095E00BFD0E0C0E0743A12007ED0E0C0E0740D6B
:10096E00141200BFD0E0C000A83B1200C6D000C0D9
:10097E00E0740F141200BFD0E0C0E0742012007EAD
:10098E00D0E0C0E07410141200BFD0E0300A0BC0EB
:10099E00E0745012007ED0E08009C0E0744F120067
:1009AE007ED0E0B408028003020A50C0E074011445
:1009BE001200C1D0E0C083C082C0E090015A120084
:1009CE00B4D0E0D082D083C0E07401141200BFD046
:1009DE00E0C083C082C0E09001611200B4D0E0D0CC
:1009EE0082D083C0E07407141200BFD0E0C000A80C
:1009FE003E1200C6D000C0E0740A141200BFD0E050
:100A0E00C000A83F1200C6D000C0E0740C14120043
:100A1E00BFD0E0C0E0743A12007ED0E0C0E0740DAA
:100A2E00141200BFD0E0C000A8401200C6D000C013
:100A3E00E0740F141200BFD0E0C0E0742012007EEC
:100A4E00D0E0B409028003020AEFC0E07401141270
:100A5E0000C1D0E0C083C082C0E090015A1200B441
:100A6E00D0E0D082D083C0E07401141200BFD0E079
:100A7E00C083C082C0E09001681200B4D0E0D08282
:100A8E00D083C0E07407141200BFD0E0C000A83EAF
:100A9E001200C6D000C0E0740A141200BFD0E0C02D
:100AAE0000A83F1200C6D000C0E0740C141200BFA4
:100ABE00D0E0C0E0743A12007ED0E0C0E0740D14B5
:100ACE001200BFD0E0C000A8401200C6D000C0E0A7
:100ADE00740F141200BFD0E0C0E0742012007ED05C
:100AEE00E0B410028003020BA1C0E07401141200E6
:100AFE00C1D0E0C083C082C0E090015A1200B4D0D1
:100B0E00E0D082D083C0E07401141200BFD0E0C0E8
:100B1E0083C082C0E090016F1200B4D0E0D082D0CA
:100B2E0083C0E07407141200BFD0E0C000A83E12CC
:100B3E0000C6D000C0E0740A141200BFD0E0C0009E
:100B4E00A83F1200C6D000C0E0740C141200BFD033
:100B5E00E0C0E0743A12007ED0E0C0E0740D1412D2
:100B6E0000BFD0E0C000A8401200C6D000C0E074A4
:100B7E000F141200BFD0E0C0E0742012007ED0E04F
:100B8E00C0E07410141200BFD0E0C0E07420120058
:100B9E007ED0E0B411028003020C53C0E074011445
:100BAE001200C1D0E0C083C082C0E090010A1200E2
:100BBE00B4D0E0D082D083C0E07405141200C1D04E
:100BCE00E0C0E0742012007ED0E0C0E07401141288
:100BDE0000BFD0E0C083C082C0E090015A1200B4C2
:100BEE00D0E0D082D083C0E07407141200BFD0E0F2
:100BFE00C000A83E1200C6D000C0E0740A14120055
:100C0E00BFD0E0C000A83F1200C6D000C0E0740CF8
:100C1E00141200BFD0E0C0E0743A12007ED0E0C0E3
:100C2E00E0740D141200BFD0E0C000A8401200C640
:100C3E00D000C0E0740F141200BFD0E0C0E07420EA
:100C4E0012007ED0E030081EC0E07401141200BF06
:100C5E00D0E0C083C082C0E09001491200B4D0E061
:100C6E00D082D0838016200813C0E07409141200BD
:100C7E00BFD0E0C0E0743A12007ED0E0200128C060
:100C8E00E07409141200C1D0E0C0E0743A12007E84
:100C9E00D0E0C0E0740C141200C1D0E0C0E0743A91
:100CAE0012007ED0E08026C0E07409141200C1D07C
:100CBE00E0C0E0742012007ED0E0C0E0740C14128C
:100CCE0000C1D0E0C0E0742012007ED0E0C200C2AD
:0A0CDE0002C203C204C20902050AA3
:00000001FF
